{
  "transactions": [
    {
      "hash": "0x4e376acc7a2312177c43e7b89d0c3d45adbc6ef7bc63f0260c4c5ef28d4b4671",
      "transactionType": "CALL",
      "contractName": null,
      "contractAddress": "0xc6962a4ffeaf4c7fdf46c02ca99c29a4cc366f2e",
      "function": "updateWithdrawalFee(uint256)",
      "arguments": [
        "50"
      ],
      "transaction": {
        "from": "0x1de2767421d8c55f8f38dca45d2dfb893ab2b9ea",
        "to": "0xc6962a4ffeaf4c7fdf46c02ca99c29a4cc366f2e",
        "gas": "0xfc98",
        "value": "0x0",
        "input": "0x569b8e2c0000000000000000000000000000000000000000000000000000000000000032",
        "nonce": "0x97",
        "chainId": "0xba9304"
      },
      "additionalContracts": [],
      "isFixedGasLimit": false
    }
  ],
  "receipts": [
    {
      "status": "0x1",
      "cumulativeGasUsed": "0xb6e0",
      "logs": [
        {
          "address": "0xc6962a4ffeaf4c7fdf46c02ca99c29a4cc366f2e",
          "topics": [
            "0xdf26583297f944258b4ad7a68f4ff7d7c5aa9a440776620fad8baf2ba562deb8"
          ],
          "data": "0x0000000000000000000000000000000000000000000000000000000000000032",
          "blockHash": "0xe4df64f2d1bc9a978c0ca85075caa6bc5d82bc2b8b7c12d406b7ad89862807c5",
          "blockNumber": "0x90c5a",
          "transactionHash": "0x4e376acc7a2312177c43e7b89d0c3d45adbc6ef7bc63f0260c4c5ef28d4b4671",
          "transactionIndex": "0x0",
          "logIndex": "0x0",
          "removed": false
        }
      ],
      "logsBloom": "0x00000000000000000000000000000000000000000000000000000000000000000000000000000000000000000000000000000000000000000000000000000000000000000000000000000000000000000000000000000080000000000000000000000000000000001000000000000000000000000000000000000000400000000000000000000000000000000000000000000000000000000000000000000000000000000000010000020000000000000000000000000000000000800000000000000000000000000000000000000000000000000000000000000000000000000000000000000000000000000000000000000000000000000000000000000000",
      "type": "0x2",
      "transactionHash": "0x4e376acc7a2312177c43e7b89d0c3d45adbc6ef7bc63f0260c4c5ef28d4b4671",
      "transactionIndex": "0x0",
      "blockHash": "0xe4df64f2d1bc9a978c0ca85075caa6bc5d82bc2b8b7c12d406b7ad89862807c5",
      "blockNumber": "0x90c5a",
      "gasUsed": "0xb6e0",
      "effectiveGasPrice": "0x9502f9000",
      "from": "0x1de2767421d8c55f8f38dca45d2dfb893ab2b9ea",
      "to": "0xc6962a4ffeaf4c7fdf46c02ca99c29a4cc366f2e",
      "contractAddress": null
    }
  ],
  "libraries": [],
  "pending": [],
  "returns": {},
  "timestamp": 1729227134,
  "chain": 12227332,
  "commit": "4e51295"
}